{
  "_format": "hh-sol-artifact-1",
  "contractName": "Bazaar",
  "sourceName": "src/backend/contracts/Bazaar.sol",
  "abi": [
    {
      "inputs": [
        {
          "internalType": "uint256",
          "name": "_commision",
          "type": "uint256"
        }
      ],
      "stateMutability": "nonpayable",
      "type": "constructor"
    },
    {
      "anonymous": false,
      "inputs": [
        {
          "indexed": false,
          "internalType": "uint256",
          "name": "itemId",
          "type": "uint256"
        },
        {
          "indexed": true,
          "internalType": "address",
          "name": "nft",
          "type": "address"
        },
        {
          "indexed": false,
          "internalType": "uint256",
          "name": "nftId",
          "type": "uint256"
        },
        {
          "indexed": false,
          "internalType": "uint256",
          "name": "price",
          "type": "uint256"
        },
        {
          "indexed": true,
          "internalType": "address",
          "name": "seller",
          "type": "address"
        }
      ],
      "name": "Listed",
      "type": "event"
    },
    {
      "anonymous": false,
      "inputs": [
        {
          "indexed": false,
          "internalType": "uint256",
          "name": "itemId",
          "type": "uint256"
        },
        {
          "indexed": true,
          "internalType": "address",
          "name": "nft",
          "type": "address"
        },
        {
          "indexed": false,
          "internalType": "uint256",
          "name": "nftId",
          "type": "uint256"
        },
        {
          "indexed": false,
          "internalType": "uint256",
          "name": "price",
          "type": "uint256"
        },
        {
          "indexed": true,
          "internalType": "address",
          "name": "buyer",
          "type": "address"
        },
        {
          "indexed": true,
          "internalType": "address",
          "name": "seller",
          "type": "address"
        }
      ],
      "name": "Sold",
      "type": "event"
    },
    {
      "inputs": [
        {
          "internalType": "uint256",
          "name": "_itemId",
          "type": "uint256"
        }
      ],
      "name": "PurchaseItem",
      "outputs": [],
      "stateMutability": "payable",
      "type": "function"
    },
    {
      "inputs": [
        {
          "components": [
            {
              "internalType": "uint256",
              "name": "itemId",
              "type": "uint256"
            },
            {
              "internalType": "contract IERC721",
              "name": "nft",
              "type": "address"
            },
            {
              "internalType": "uint256",
              "name": "nftId",
              "type": "uint256"
            },
            {
              "internalType": "uint256",
              "name": "price",
              "type": "uint256"
            },
            {
              "internalType": "address payable",
              "name": "seller",
              "type": "address"
            },
            {
              "internalType": "bool",
              "name": "sold",
              "type": "bool"
            }
          ],
          "internalType": "struct Bazaar.Item",
          "name": "_item",
          "type": "tuple"
        }
      ],
      "name": "comission",
      "outputs": [
        {
          "internalType": "uint256",
          "name": "",
          "type": "uint256"
        }
      ],
      "stateMutability": "view",
      "type": "function"
    },
    {
      "inputs": [
        {
          "internalType": "contract IERC721",
          "name": "_nft",
          "type": "address"
        },
        {
          "internalType": "uint256",
          "name": "_nftId",
          "type": "uint256"
        },
        {
          "internalType": "uint256",
          "name": "_price",
          "type": "uint256"
        }
      ],
      "name": "createItem",
      "outputs": [],
      "stateMutability": "nonpayable",
      "type": "function"
    },
    {
      "inputs": [
        {
          "internalType": "uint256",
          "name": "",
          "type": "uint256"
        }
      ],
      "name": "items",
      "outputs": [
        {
          "internalType": "uint256",
          "name": "itemId",
          "type": "uint256"
        },
        {
          "internalType": "contract IERC721",
          "name": "nft",
          "type": "address"
        },
        {
          "internalType": "uint256",
          "name": "nftId",
          "type": "uint256"
        },
        {
          "internalType": "uint256",
          "name": "price",
          "type": "uint256"
        },
        {
          "internalType": "address payable",
          "name": "seller",
          "type": "address"
        },
        {
          "internalType": "bool",
          "name": "sold",
          "type": "bool"
        }
      ],
      "stateMutability": "view",
      "type": "function"
    },
    {
      "inputs": [],
      "name": "s_commision",
      "outputs": [
        {
          "internalType": "uint256",
          "name": "",
          "type": "uint256"
        }
      ],
      "stateMutability": "view",
      "type": "function"
    },
    {
      "inputs": [],
      "name": "s_commisionAccount",
      "outputs": [
        {
          "internalType": "address payable",
          "name": "",
          "type": "address"
        }
      ],
      "stateMutability": "view",
      "type": "function"
    },
    {
      "inputs": [],
      "name": "s_itemCount",
      "outputs": [
        {
          "internalType": "uint256",
          "name": "",
          "type": "uint256"
        }
      ],
      "stateMutability": "view",
      "type": "function"
    }
  ],
  "bytecode": "0x60c060405234801561001057600080fd5b50604051620014783803806200147883398181016040528101906100349190610096565b60016000819055508060a081815250503373ffffffffffffffffffffffffffffffffffffffff1660808173ffffffffffffffffffffffffffffffffffffffff1660601b81525050506100e0565b600081519050610090816100c9565b92915050565b6000602082840312156100a857600080fd5b60006100b684828501610081565b91505092915050565b6000819050919050565b6100d2816100bf565b81146100dd57600080fd5b50565b60805160601c60a05161135a6200011e600039600081816101bc01526105690152600081816101e00152818161080901526109ab015261135a6000f3fe6080604052600436106100705760003560e01c806357baf0fb1161004e57806357baf0fb146100f6578063bfb231d21461011f578063e1a1460714610161578063eff01f8d1461019e57610070565b80631f2cb6af146100755780633b55c77f146100a05780634c3fee9a146100cb575b600080fd5b34801561008157600080fd5b5061008a6101ba565b6040516100979190610e85565b60405180910390f35b3480156100ac57600080fd5b506100b56101de565b6040516100c29190610d93565b60405180910390f35b3480156100d757600080fd5b506100e0610202565b6040516100ed9190610e85565b60405180910390f35b34801561010257600080fd5b5061011d60048036038101906101189190610bf8565b610208565b005b34801561012b57600080fd5b5061014660048036038101906101419190610c70565b6104da565b60405161015896959493929190610ea0565b60405180910390f35b34801561016d57600080fd5b5061018860048036038101906101839190610c47565b610563565b6040516101959190610e85565b60405180910390f35b6101b860048036038101906101b39190610c70565b6105a8565b005b7f000000000000000000000000000000000000000000000000000000000000000081565b7f000000000000000000000000000000000000000000000000000000000000000081565b60015481565b6002600054141561024e576040517f08c379a000000000000000000000000000000000000000000000000000000000815260040161024590610e45565b60405180910390fd5b600260008190555060008111610299576040517f08c379a000000000000000000000000000000000000000000000000000000000815260040161029090610e05565b60405180910390fd5b600160008154809291906102ac906110ee565b91905055508273ffffffffffffffffffffffffffffffffffffffff166323b872dd3330856040518463ffffffff1660e01b81526004016102ee93929190610dae565b600060405180830381600087803b15801561030857600080fd5b505af115801561031c573d6000803e3d6000fd5b505050506040518060c0016040528060015481526020018473ffffffffffffffffffffffffffffffffffffffff1681526020018381526020018281526020013373ffffffffffffffffffffffffffffffffffffffff168152602001600015158152506002600060015481526020019081526020016000206000820151816000015560208201518160010160006101000a81548173ffffffffffffffffffffffffffffffffffffffff021916908373ffffffffffffffffffffffffffffffffffffffff160217905550604082015181600201556060820151816003015560808201518160040160006101000a81548173ffffffffffffffffffffffffffffffffffffffff021916908373ffffffffffffffffffffffffffffffffffffffff16021790555060a08201518160040160146101000a81548160ff0219169083151502179055509050503373ffffffffffffffffffffffffffffffffffffffff168373ffffffffffffffffffffffffffffffffffffffff167f0d770f67a166dfb160ca3991c3a328328d7d3899464a55a6fa63448ceda4952360015485856040516104c593929190610f01565b60405180910390a36001600081905550505050565b60026020528060005260406000206000915090508060000154908060010160009054906101000a900473ffffffffffffffffffffffffffffffffffffffff16908060020154908060030154908060040160009054906101000a900473ffffffffffffffffffffffffffffffffffffffff16908060040160149054906101000a900460ff16905086565b600060647f00000000000000000000000000000000000000000000000000000000000000006105929190610f6e565b82606001516105a19190610f9f565b9050919050565b600260005414156105ee576040517f08c379a00000000000000000000000000000000000000000000000000000000081526004016105e590610e45565b60405180910390fd5b6002600081905550600060026000838152602001908152602001600020905060008211801561061f57506001548211155b61065e576040517f08c379a000000000000000000000000000000000000000000000000000000000815260040161065590610e25565b60405180910390fd5b806003015434116106a4576040517f08c379a000000000000000000000000000000000000000000000000000000000815260040161069b90610de5565b60405180910390fd5b8060040160149054906101000a900460ff16156106f6576040517f08c379a00000000000000000000000000000000000000000000000000000000081526004016106ed90610e65565b60405180910390fd5b60006107f1826040518060c0016040529081600082015481526020016001820160009054906101000a900473ffffffffffffffffffffffffffffffffffffffff1673ffffffffffffffffffffffffffffffffffffffff1673ffffffffffffffffffffffffffffffffffffffff16815260200160028201548152602001600382015481526020016004820160009054906101000a900473ffffffffffffffffffffffffffffffffffffffff1673ffffffffffffffffffffffffffffffffffffffff1673ffffffffffffffffffffffffffffffffffffffff1681526020016004820160149054906101000a900460ff161515151581525050610563565b905060008183600301546108059190610ff9565b90507f000000000000000000000000000000000000000000000000000000000000000073ffffffffffffffffffffffffffffffffffffffff166108fc839081150290604051600060405180830381858888f1935050505015801561086d573d6000803e3d6000fd5b508260040160009054906101000a900473ffffffffffffffffffffffffffffffffffffffff1673ffffffffffffffffffffffffffffffffffffffff166108fc829081150290604051600060405180830381858888f193505050501580156108d8573d6000803e3d6000fd5b508260010160009054906101000a900473ffffffffffffffffffffffffffffffffffffffff1673ffffffffffffffffffffffffffffffffffffffff166323b872dd303386600201546040518463ffffffff1660e01b815260040161093e93929190610dae565b600060405180830381600087803b15801561095857600080fd5b505af115801561096c573d6000803e3d6000fd5b5050505060018360040160146101000a81548160ff021916908315150217905550600083600301543461099f9190610ff9565b9050600081116109e2577f000000000000000000000000000000000000000000000000000000000000000073ffffffffffffffffffffffffffffffffffffffff16ff5b3373ffffffffffffffffffffffffffffffffffffffff166108fc829081150290604051600060405180830381858888f19350505050158015610a28573d6000803e3d6000fd5b508360040160009054906101000a900473ffffffffffffffffffffffffffffffffffffffff1673ffffffffffffffffffffffffffffffffffffffff163373ffffffffffffffffffffffffffffffffffffffff168560010160009054906101000a900473ffffffffffffffffffffffffffffffffffffffff1673ffffffffffffffffffffffffffffffffffffffff167f3a8685b62d01a68e1127184fa7e29f3df763038cecc4d6e0cf9df79d92a0ad898888600201548960030154604051610af193929190610f01565b60405180910390a450505050600160008190555050565b600081359050610b17816112c8565b92915050565b600081359050610b2c816112df565b92915050565b600081359050610b41816112f6565b92915050565b600060c08284031215610b5957600080fd5b610b6360c0610f38565b90506000610b7384828501610be3565b6000830152506020610b8784828501610b32565b6020830152506040610b9b84828501610be3565b6040830152506060610baf84828501610be3565b6060830152506080610bc384828501610b08565b60808301525060a0610bd784828501610b1d565b60a08301525092915050565b600081359050610bf28161130d565b92915050565b600080600060608486031215610c0d57600080fd5b6000610c1b86828701610b32565b9350506020610c2c86828701610be3565b9250506040610c3d86828701610be3565b9150509250925092565b600060c08284031215610c5957600080fd5b6000610c6784828501610b47565b91505092915050565b600060208284031215610c8257600080fd5b6000610c9084828501610be3565b91505092915050565b610ca28161103f565b82525050565b610cb18161102d565b82525050565b610cc081611051565b82525050565b610ccf81611099565b82525050565b6000610ce2602f83610f5d565b9150610ced826111d5565b604082019050919050565b6000610d05601e83610f5d565b9150610d1082611224565b602082019050919050565b6000610d28601283610f5d565b9150610d338261124d565b602082019050919050565b6000610d4b601f83610f5d565b9150610d5682611276565b602082019050919050565b6000610d6e601083610f5d565b9150610d798261129f565b602082019050919050565b610d8d8161108f565b82525050565b6000602082019050610da86000830184610c99565b92915050565b6000606082019050610dc36000830186610ca8565b610dd06020830185610ca8565b610ddd6040830184610d84565b949350505050565b60006020820190508181036000830152610dfe81610cd5565b9050919050565b60006020820190508181036000830152610e1e81610cf8565b9050919050565b60006020820190508181036000830152610e3e81610d1b565b9050919050565b60006020820190508181036000830152610e5e81610d3e565b9050919050565b60006020820190508181036000830152610e7e81610d61565b9050919050565b6000602082019050610e9a6000830184610d84565b92915050565b600060c082019050610eb56000830189610d84565b610ec26020830188610cc6565b610ecf6040830187610d84565b610edc6060830186610d84565b610ee96080830185610c99565b610ef660a0830184610cb7565b979650505050505050565b6000606082019050610f166000830186610d84565b610f236020830185610d84565b610f306040830184610d84565b949350505050565b6000610f42610f53565b9050610f4e82826110bd565b919050565b6000604051905090565b600082825260208201905092915050565b6000610f798261108f565b9150610f848361108f565b925082610f9457610f93611166565b5b828204905092915050565b6000610faa8261108f565b9150610fb58361108f565b9250817fffffffffffffffffffffffffffffffffffffffffffffffffffffffffffffffff0483118215151615610fee57610fed611137565b5b828202905092915050565b60006110048261108f565b915061100f8361108f565b92508282101561102257611021611137565b5b828203905092915050565b60006110388261106f565b9050919050565b600061104a8261106f565b9050919050565b60008115159050919050565b60006110688261102d565b9050919050565b600073ffffffffffffffffffffffffffffffffffffffff82169050919050565b6000819050919050565b60006110a4826110ab565b9050919050565b60006110b68261106f565b9050919050565b6110c6826111c4565b810181811067ffffffffffffffff821117156110e5576110e4611195565b5b80604052505050565b60006110f98261108f565b91507fffffffffffffffffffffffffffffffffffffffffffffffffffffffffffffffff82141561112c5761112b611137565b5b600182019050919050565b7f4e487b7100000000000000000000000000000000000000000000000000000000600052601160045260246000fd5b7f4e487b7100000000000000000000000000000000000000000000000000000000600052601260045260246000fd5b7f4e487b7100000000000000000000000000000000000000000000000000000000600052604160045260246000fd5b6000601f19601f8301169050919050565b7f6e6f7420656e6f75676820657468657220746f20707572636861736520616e6460008201527f20636f7665722067617320666565730000000000000000000000000000000000602082015250565b7f70726963652068617320746f2062652067726561746572207468616e20300000600082015250565b7f4e465420646f6573206e6f742065786973740000000000000000000000000000600082015250565b7f5265656e7472616e637947756172643a207265656e7472616e742063616c6c00600082015250565b7f4e465420616c726561647920736f6c6400000000000000000000000000000000600082015250565b6112d18161103f565b81146112dc57600080fd5b50565b6112e881611051565b81146112f357600080fd5b50565b6112ff8161105d565b811461130a57600080fd5b50565b6113168161108f565b811461132157600080fd5b5056fea26469706673582212206d53621f7ad21863e69977499b24932c85e45dd1af92224b464275e3ca8ff0b464736f6c63430008040033",
  "linkReferences": {},
  "deployedLinkReferences": {}
}