{
  "_format": "hh-sol-artifact-1",
  "contractName": "MyNft",
  "sourceName": "src/backend/contracts/MyNft.sol",
  "abi": [
    {
      "inputs": [],
      "stateMutability": "nonpayable",
      "type": "constructor"
    },
    {
      "anonymous": false,
      "inputs": [
        {
          "indexed": true,
          "internalType": "address",
          "name": "owner",
          "type": "address"
        },
        {
          "indexed": true,
          "internalType": "address",
          "name": "approved",
          "type": "address"
        },
        {
          "indexed": true,
          "internalType": "uint256",
          "name": "tokenId",
          "type": "uint256"
        }
      ],
      "name": "Approval",
      "type": "event"
    },
    {
      "anonymous": false,
      "inputs": [
        {
          "indexed": true,
          "internalType": "address",
          "name": "owner",
          "type": "address"
        },
        {
          "indexed": true,
          "internalType": "address",
          "name": "operator",
          "type": "address"
        },
        {
          "indexed": false,
          "internalType": "bool",
          "name": "approved",
          "type": "bool"
        }
      ],
      "name": "ApprovalForAll",
      "type": "event"
    },
    {
      "anonymous": false,
      "inputs": [
        {
          "indexed": true,
          "internalType": "address",
          "name": "previousOwner",
          "type": "address"
        },
        {
          "indexed": true,
          "internalType": "address",
          "name": "newOwner",
          "type": "address"
        }
      ],
      "name": "OwnershipTransferred",
      "type": "event"
    },
    {
      "anonymous": false,
      "inputs": [
        {
          "indexed": true,
          "internalType": "address",
          "name": "from",
          "type": "address"
        },
        {
          "indexed": true,
          "internalType": "address",
          "name": "to",
          "type": "address"
        },
        {
          "indexed": true,
          "internalType": "uint256",
          "name": "tokenId",
          "type": "uint256"
        }
      ],
      "name": "Transfer",
      "type": "event"
    },
    {
      "inputs": [
        {
          "internalType": "address",
          "name": "to",
          "type": "address"
        },
        {
          "internalType": "uint256",
          "name": "tokenId",
          "type": "uint256"
        }
      ],
      "name": "approve",
      "outputs": [],
      "stateMutability": "nonpayable",
      "type": "function"
    },
    {
      "inputs": [
        {
          "internalType": "address",
          "name": "owner",
          "type": "address"
        }
      ],
      "name": "balanceOf",
      "outputs": [
        {
          "internalType": "uint256",
          "name": "",
          "type": "uint256"
        }
      ],
      "stateMutability": "view",
      "type": "function"
    },
    {
      "inputs": [
        {
          "internalType": "uint256",
          "name": "tokenId",
          "type": "uint256"
        }
      ],
      "name": "getApproved",
      "outputs": [
        {
          "internalType": "address",
          "name": "",
          "type": "address"
        }
      ],
      "stateMutability": "view",
      "type": "function"
    },
    {
      "inputs": [
        {
          "internalType": "address",
          "name": "owner",
          "type": "address"
        },
        {
          "internalType": "address",
          "name": "operator",
          "type": "address"
        }
      ],
      "name": "isApprovedForAll",
      "outputs": [
        {
          "internalType": "bool",
          "name": "",
          "type": "bool"
        }
      ],
      "stateMutability": "view",
      "type": "function"
    },
    {
      "inputs": [
        {
          "internalType": "string",
          "name": "_tokenURI",
          "type": "string"
        }
      ],
      "name": "mintNft",
      "outputs": [
        {
          "internalType": "uint256",
          "name": "",
          "type": "uint256"
        }
      ],
      "stateMutability": "nonpayable",
      "type": "function"
    },
    {
      "inputs": [],
      "name": "name",
      "outputs": [
        {
          "internalType": "string",
          "name": "",
          "type": "string"
        }
      ],
      "stateMutability": "view",
      "type": "function"
    },
    {
      "inputs": [],
      "name": "owner",
      "outputs": [
        {
          "internalType": "address",
          "name": "",
          "type": "address"
        }
      ],
      "stateMutability": "view",
      "type": "function"
    },
    {
      "inputs": [
        {
          "internalType": "uint256",
          "name": "tokenId",
          "type": "uint256"
        }
      ],
      "name": "ownerOf",
      "outputs": [
        {
          "internalType": "address",
          "name": "",
          "type": "address"
        }
      ],
      "stateMutability": "view",
      "type": "function"
    },
    {
      "inputs": [],
      "name": "renounceOwnership",
      "outputs": [],
      "stateMutability": "nonpayable",
      "type": "function"
    },
    {
      "inputs": [
        {
          "internalType": "address",
          "name": "from",
          "type": "address"
        },
        {
          "internalType": "address",
          "name": "to",
          "type": "address"
        },
        {
          "internalType": "uint256",
          "name": "tokenId",
          "type": "uint256"
        }
      ],
      "name": "safeTransferFrom",
      "outputs": [],
      "stateMutability": "nonpayable",
      "type": "function"
    },
    {
      "inputs": [
        {
          "internalType": "address",
          "name": "from",
          "type": "address"
        },
        {
          "internalType": "address",
          "name": "to",
          "type": "address"
        },
        {
          "internalType": "uint256",
          "name": "tokenId",
          "type": "uint256"
        },
        {
          "internalType": "bytes",
          "name": "_data",
          "type": "bytes"
        }
      ],
      "name": "safeTransferFrom",
      "outputs": [],
      "stateMutability": "nonpayable",
      "type": "function"
    },
    {
      "inputs": [
        {
          "internalType": "address",
          "name": "operator",
          "type": "address"
        },
        {
          "internalType": "bool",
          "name": "approved",
          "type": "bool"
        }
      ],
      "name": "setApprovalForAll",
      "outputs": [],
      "stateMutability": "nonpayable",
      "type": "function"
    },
    {
      "inputs": [
        {
          "internalType": "bytes4",
          "name": "interfaceId",
          "type": "bytes4"
        }
      ],
      "name": "supportsInterface",
      "outputs": [
        {
          "internalType": "bool",
          "name": "",
          "type": "bool"
        }
      ],
      "stateMutability": "view",
      "type": "function"
    },
    {
      "inputs": [],
      "name": "symbol",
      "outputs": [
        {
          "internalType": "string",
          "name": "",
          "type": "string"
        }
      ],
      "stateMutability": "view",
      "type": "function"
    },
    {
      "inputs": [
        {
          "internalType": "uint256",
          "name": "tokenId",
          "type": "uint256"
        }
      ],
      "name": "tokenURI",
      "outputs": [
        {
          "internalType": "string",
          "name": "",
          "type": "string"
        }
      ],
      "stateMutability": "view",
      "type": "function"
    },
    {
      "inputs": [
        {
          "internalType": "address",
          "name": "from",
          "type": "address"
        },
        {
          "internalType": "address",
          "name": "to",
          "type": "address"
        },
        {
          "internalType": "uint256",
          "name": "tokenId",
          "type": "uint256"
        }
      ],
      "name": "transferFrom",
      "outputs": [],
      "stateMutability": "nonpayable",
      "type": "function"
    },
    {
      "inputs": [
        {
          "internalType": "address",
          "name": "newOwner",
          "type": "address"
        }
      ],
      "name": "transferOwnership",
      "outputs": [],
      "stateMutability": "nonpayable",
      "type": "function"
    }
  ],
  "bytecode": "0x60806040523480156200001157600080fd5b506040518060400160405280600481526020017f6e616d65000000000000000000000000000000000000000000000000000000008152506040518060400160405280600681526020017f73796d626f6c0000000000000000000000000000000000000000000000000000815250816000908051906020019062000096929190620001a6565b508060019080519060200190620000af929190620001a6565b505050620000d2620000c6620000d860201b60201c565b620000e060201b60201c565b620002bb565b600033905090565b6000600760009054906101000a900473ffffffffffffffffffffffffffffffffffffffff16905081600760006101000a81548173ffffffffffffffffffffffffffffffffffffffff021916908373ffffffffffffffffffffffffffffffffffffffff1602179055508173ffffffffffffffffffffffffffffffffffffffff168173ffffffffffffffffffffffffffffffffffffffff167f8be0079c531659141344cd1fd0a4f28419497f9722a3daafe3b4186f6b6457e060405160405180910390a35050565b828054620001b49062000256565b90600052602060002090601f016020900481019282620001d8576000855562000224565b82601f10620001f357805160ff191683800117855562000224565b8280016001018555821562000224579182015b828111156200022357825182559160200191906001019062000206565b5b50905062000233919062000237565b5090565b5b808211156200025257600081600090555060010162000238565b5090565b600060028204905060018216806200026f57607f821691505b602082108114156200028657620002856200028c565b5b50919050565b7f4e487b7100000000000000000000000000000000000000000000000000000000600052602260045260246000fd5b61304e80620002cb6000396000f3fe608060405234801561001057600080fd5b506004361061010b5760003560e01c8063715018a6116100a2578063b88d4fde11610071578063b88d4fde146102a4578063c87b56dd146102c0578063da86f4a9146102f0578063e985e9c514610320578063f2fde38b146103505761010b565b8063715018a6146102425780638da5cb5b1461024c57806395d89b411461026a578063a22cb465146102885761010b565b806323b872dd116100de57806323b872dd146101aa57806342842e0e146101c65780636352211e146101e257806370a08231146102125761010b565b806301ffc9a71461011057806306fdde0314610140578063081812fc1461015e578063095ea7b31461018e575b600080fd5b61012a60048036038101906101259190611fbc565b61036c565b6040516101379190612449565b60405180910390f35b61014861044e565b6040516101559190612464565b60405180910390f35b6101786004803603810190610173919061204f565b6104e0565b60405161018591906123e2565b60405180910390f35b6101a860048036038101906101a39190611f80565b610565565b005b6101c460048036038101906101bf9190611e7a565b61067d565b005b6101e060048036038101906101db9190611e7a565b6106dd565b005b6101fc60048036038101906101f7919061204f565b6106fd565b60405161020991906123e2565b60405180910390f35b61022c60048036038101906102279190611e15565b6107af565b60405161023991906126c6565b60405180910390f35b61024a610867565b005b6102546108ef565b60405161026191906123e2565b60405180910390f35b610272610919565b60405161027f9190612464565b60405180910390f35b6102a2600480360381019061029d9190611f44565b6109ab565b005b6102be60048036038101906102b99190611ec9565b6109c1565b005b6102da60048036038101906102d5919061204f565b610a23565b6040516102e79190612464565b60405180910390f35b61030a6004803603810190610305919061200e565b610b75565b60405161031791906126c6565b60405180910390f35b61033a60048036038101906103359190611e3e565b610c28565b6040516103479190612449565b60405180910390f35b61036a60048036038101906103659190611e15565b610cbc565b005b60007f80ac58cd000000000000000000000000000000000000000000000000000000007bffffffffffffffffffffffffffffffffffffffffffffffffffffffff1916827bffffffffffffffffffffffffffffffffffffffffffffffffffffffff1916148061043757507f5b5e139f000000000000000000000000000000000000000000000000000000007bffffffffffffffffffffffffffffffffffffffffffffffffffffffff1916827bffffffffffffffffffffffffffffffffffffffffffffffffffffffff1916145b80610447575061044682610db4565b5b9050919050565b60606000805461045d9061291c565b80601f01602080910402602001604051908101604052809291908181526020018280546104899061291c565b80156104d65780601f106104ab576101008083540402835291602001916104d6565b820191906000526020600020905b8154815290600101906020018083116104b957829003601f168201915b5050505050905090565b60006104eb82610e1e565b61052a576040517f08c379a000000000000000000000000000000000000000000000000000000000815260040161052190612626565b60405180910390fd5b6004600083815260200190815260200160002060009054906101000a900473ffffffffffffffffffffffffffffffffffffffff169050919050565b6000610570826106fd565b90508073ffffffffffffffffffffffffffffffffffffffff168373ffffffffffffffffffffffffffffffffffffffff1614156105e1576040517f08c379a00000000000000000000000000000000000000000000000000000000081526004016105d890612686565b60405180910390fd5b8073ffffffffffffffffffffffffffffffffffffffff16610600610e8a565b73ffffffffffffffffffffffffffffffffffffffff16148061062f575061062e81610629610e8a565b610c28565b5b61066e576040517f08c379a000000000000000000000000000000000000000000000000000000000815260040161066590612566565b60405180910390fd5b6106788383610e92565b505050565b61068e610688610e8a565b82610f4b565b6106cd576040517f08c379a00000000000000000000000000000000000000000000000000000000081526004016106c4906126a6565b60405180910390fd5b6106d8838383611029565b505050565b6106f8838383604051806020016040528060008152506109c1565b505050565b6000806002600084815260200190815260200160002060009054906101000a900473ffffffffffffffffffffffffffffffffffffffff169050600073ffffffffffffffffffffffffffffffffffffffff168173ffffffffffffffffffffffffffffffffffffffff1614156107a6576040517f08c379a000000000000000000000000000000000000000000000000000000000815260040161079d906125a6565b60405180910390fd5b80915050919050565b60008073ffffffffffffffffffffffffffffffffffffffff168273ffffffffffffffffffffffffffffffffffffffff161415610820576040517f08c379a000000000000000000000000000000000000000000000000000000000815260040161081790612586565b60405180910390fd5b600360008373ffffffffffffffffffffffffffffffffffffffff1673ffffffffffffffffffffffffffffffffffffffff168152602001908152602001600020549050919050565b61086f610e8a565b73ffffffffffffffffffffffffffffffffffffffff1661088d6108ef565b73ffffffffffffffffffffffffffffffffffffffff16146108e3576040517f08c379a00000000000000000000000000000000000000000000000000000000081526004016108da90612646565b60405180910390fd5b6108ed6000611290565b565b6000600760009054906101000a900473ffffffffffffffffffffffffffffffffffffffff16905090565b6060600180546109289061291c565b80601f01602080910402602001604051908101604052809291908181526020018280546109549061291c565b80156109a15780601f10610976576101008083540402835291602001916109a1565b820191906000526020600020905b81548152906001019060200180831161098457829003601f168201915b5050505050905090565b6109bd6109b6610e8a565b8383611356565b5050565b6109d26109cc610e8a565b83610f4b565b610a11576040517f08c379a0000000000000000000000000000000000000000000000000000000008152600401610a08906126a6565b60405180910390fd5b610a1d848484846114c3565b50505050565b6060610a2e82610e1e565b610a6d576040517f08c379a0000000000000000000000000000000000000000000000000000000008152600401610a6490612606565b60405180910390fd5b6000600660008481526020019081526020016000208054610a8d9061291c565b80601f0160208091040260200160405190810160405280929190818152602001828054610ab99061291c565b8015610b065780601f10610adb57610100808354040283529160200191610b06565b820191906000526020600020905b815481529060010190602001808311610ae957829003601f168201915b505050505090506000610b1761151f565b9050600081511415610b2d578192505050610b70565b600082511115610b62578082604051602001610b4a9291906123be565b60405160208183030381529060405292505050610b70565b610b6b84611536565b925050505b919050565b6000610b7f610e8a565b73ffffffffffffffffffffffffffffffffffffffff16610b9d6108ef565b73ffffffffffffffffffffffffffffffffffffffff1614610bf3576040517f08c379a0000000000000000000000000000000000000000000000000000000008152600401610bea90612646565b60405180910390fd5b610bfd60086115dd565b6000610c0960086115f3565b9050610c153382611601565b610c1f818461161f565b80915050919050565b6000600560008473ffffffffffffffffffffffffffffffffffffffff1673ffffffffffffffffffffffffffffffffffffffff16815260200190815260200160002060008373ffffffffffffffffffffffffffffffffffffffff1673ffffffffffffffffffffffffffffffffffffffff16815260200190815260200160002060009054906101000a900460ff16905092915050565b610cc4610e8a565b73ffffffffffffffffffffffffffffffffffffffff16610ce26108ef565b73ffffffffffffffffffffffffffffffffffffffff1614610d38576040517f08c379a0000000000000000000000000000000000000000000000000000000008152600401610d2f90612646565b60405180910390fd5b600073ffffffffffffffffffffffffffffffffffffffff168173ffffffffffffffffffffffffffffffffffffffff161415610da8576040517f08c379a0000000000000000000000000000000000000000000000000000000008152600401610d9f906124a6565b60405180910390fd5b610db181611290565b50565b60007f01ffc9a7000000000000000000000000000000000000000000000000000000007bffffffffffffffffffffffffffffffffffffffffffffffffffffffff1916827bffffffffffffffffffffffffffffffffffffffffffffffffffffffff1916149050919050565b60008073ffffffffffffffffffffffffffffffffffffffff166002600084815260200190815260200160002060009054906101000a900473ffffffffffffffffffffffffffffffffffffffff1673ffffffffffffffffffffffffffffffffffffffff1614159050919050565b600033905090565b816004600083815260200190815260200160002060006101000a81548173ffffffffffffffffffffffffffffffffffffffff021916908373ffffffffffffffffffffffffffffffffffffffff160217905550808273ffffffffffffffffffffffffffffffffffffffff16610f05836106fd565b73ffffffffffffffffffffffffffffffffffffffff167f8c5be1e5ebec7d5bd14f71427d1e84f3dd0314c0f7b2291e5b200ac8c7c3b92560405160405180910390a45050565b6000610f5682610e1e565b610f95576040517f08c379a0000000000000000000000000000000000000000000000000000000008152600401610f8c90612546565b60405180910390fd5b6000610fa0836106fd565b90508073ffffffffffffffffffffffffffffffffffffffff168473ffffffffffffffffffffffffffffffffffffffff16148061100f57508373ffffffffffffffffffffffffffffffffffffffff16610ff7846104e0565b73ffffffffffffffffffffffffffffffffffffffff16145b80611020575061101f8185610c28565b5b91505092915050565b8273ffffffffffffffffffffffffffffffffffffffff16611049826106fd565b73ffffffffffffffffffffffffffffffffffffffff161461109f576040517f08c379a0000000000000000000000000000000000000000000000000000000008152600401611096906124c6565b60405180910390fd5b600073ffffffffffffffffffffffffffffffffffffffff168273ffffffffffffffffffffffffffffffffffffffff16141561110f576040517f08c379a000000000000000000000000000000000000000000000000000000000815260040161110690612506565b60405180910390fd5b61111a838383611693565b611125600082610e92565b6001600360008573ffffffffffffffffffffffffffffffffffffffff1673ffffffffffffffffffffffffffffffffffffffff16815260200190815260200160002060008282546111759190612832565b925050819055506001600360008473ffffffffffffffffffffffffffffffffffffffff1673ffffffffffffffffffffffffffffffffffffffff16815260200190815260200160002060008282546111cc91906127ab565b92505081905550816002600083815260200190815260200160002060006101000a81548173ffffffffffffffffffffffffffffffffffffffff021916908373ffffffffffffffffffffffffffffffffffffffff160217905550808273ffffffffffffffffffffffffffffffffffffffff168473ffffffffffffffffffffffffffffffffffffffff167fddf252ad1be2c89b69c2b068fc378daa952ba7f163c4a11628f55a4df523b3ef60405160405180910390a461128b838383611698565b505050565b6000600760009054906101000a900473ffffffffffffffffffffffffffffffffffffffff16905081600760006101000a81548173ffffffffffffffffffffffffffffffffffffffff021916908373ffffffffffffffffffffffffffffffffffffffff1602179055508173ffffffffffffffffffffffffffffffffffffffff168173ffffffffffffffffffffffffffffffffffffffff167f8be0079c531659141344cd1fd0a4f28419497f9722a3daafe3b4186f6b6457e060405160405180910390a35050565b8173ffffffffffffffffffffffffffffffffffffffff168373ffffffffffffffffffffffffffffffffffffffff1614156113c5576040517f08c379a00000000000000000000000000000000000000000000000000000000081526004016113bc90612526565b60405180910390fd5b80600560008573ffffffffffffffffffffffffffffffffffffffff1673ffffffffffffffffffffffffffffffffffffffff16815260200190815260200160002060008473ffffffffffffffffffffffffffffffffffffffff1673ffffffffffffffffffffffffffffffffffffffff16815260200190815260200160002060006101000a81548160ff0219169083151502179055508173ffffffffffffffffffffffffffffffffffffffff168373ffffffffffffffffffffffffffffffffffffffff167f17307eab39ab6107e8899845ad3d59bd9653f200f220920489ca2b5937696c31836040516114b69190612449565b60405180910390a3505050565b6114ce848484611029565b6114da8484848461169d565b611519576040517f08c379a000000000000000000000000000000000000000000000000000000000815260040161151090612486565b60405180910390fd5b50505050565b606060405180602001604052806000815250905090565b606061154182610e1e565b611580576040517f08c379a000000000000000000000000000000000000000000000000000000000815260040161157790612666565b60405180910390fd5b600061158a61151f565b905060008151116115aa57604051806020016040528060008152506115d5565b806115b484611834565b6040516020016115c59291906123be565b6040516020818303038152906040525b915050919050565b6001816000016000828254019250508190555050565b600081600001549050919050565b61161b8282604051806020016040528060008152506119e1565b5050565b61162882610e1e565b611667576040517f08c379a000000000000000000000000000000000000000000000000000000000815260040161165e906125c6565b60405180910390fd5b8060066000848152602001908152602001600020908051906020019061168e929190611c39565b505050565b505050565b505050565b60006116be8473ffffffffffffffffffffffffffffffffffffffff16611a3c565b15611827578373ffffffffffffffffffffffffffffffffffffffff1663150b7a026116e7610e8a565b8786866040518563ffffffff1660e01b815260040161170994939291906123fd565b602060405180830381600087803b15801561172357600080fd5b505af192505050801561175457506040513d601f19601f820116820180604052508101906117519190611fe5565b60015b6117d7573d8060008114611784576040519150601f19603f3d011682016040523d82523d6000602084013e611789565b606091505b506000815114156117cf576040517f08c379a00000000000000000000000000000000000000000000000000000000081526004016117c690612486565b60405180910390fd5b805181602001fd5b63150b7a0260e01b7bffffffffffffffffffffffffffffffffffffffffffffffffffffffff1916817bffffffffffffffffffffffffffffffffffffffffffffffffffffffff19161491505061182c565b600190505b949350505050565b6060600082141561187c576040518060400160405280600181526020017f300000000000000000000000000000000000000000000000000000000000000081525090506119dc565b600082905060005b600082146118ae5780806118979061297f565b915050600a826118a79190612801565b9150611884565b60008167ffffffffffffffff8111156118f0577f4e487b7100000000000000000000000000000000000000000000000000000000600052604160045260246000fd5b6040519080825280601f01601f1916602001820160405280156119225781602001600182028036833780820191505090505b5090505b600085146119d55760018261193b9190612832565b9150600a8561194a91906129c8565b603061195691906127ab565b60f81b818381518110611992577f4e487b7100000000000000000000000000000000000000000000000000000000600052603260045260246000fd5b60200101907effffffffffffffffffffffffffffffffffffffffffffffffffffffffffffff1916908160001a905350600a856119ce9190612801565b9450611926565b8093505050505b919050565b6119eb8383611a5f565b6119f8600084848461169d565b611a37576040517f08c379a0000000000000000000000000000000000000000000000000000000008152600401611a2e90612486565b60405180910390fd5b505050565b6000808273ffffffffffffffffffffffffffffffffffffffff163b119050919050565b600073ffffffffffffffffffffffffffffffffffffffff168273ffffffffffffffffffffffffffffffffffffffff161415611acf576040517f08c379a0000000000000000000000000000000000000000000000000000000008152600401611ac6906125e6565b60405180910390fd5b611ad881610e1e565b15611b18576040517f08c379a0000000000000000000000000000000000000000000000000000000008152600401611b0f906124e6565b60405180910390fd5b611b2460008383611693565b6001600360008473ffffffffffffffffffffffffffffffffffffffff1673ffffffffffffffffffffffffffffffffffffffff1681526020019081526020016000206000828254611b7491906127ab565b92505081905550816002600083815260200190815260200160002060006101000a81548173ffffffffffffffffffffffffffffffffffffffff021916908373ffffffffffffffffffffffffffffffffffffffff160217905550808273ffffffffffffffffffffffffffffffffffffffff16600073ffffffffffffffffffffffffffffffffffffffff167fddf252ad1be2c89b69c2b068fc378daa952ba7f163c4a11628f55a4df523b3ef60405160405180910390a4611c3560008383611698565b5050565b828054611c459061291c565b90600052602060002090601f016020900481019282611c675760008555611cae565b82601f10611c8057805160ff1916838001178555611cae565b82800160010185558215611cae579182015b82811115611cad578251825591602001919060010190611c92565b5b509050611cbb9190611cbf565b5090565b5b80821115611cd8576000816000905550600101611cc0565b5090565b6000611cef611cea84612706565b6126e1565b905082815260208101848484011115611d0757600080fd5b611d128482856128da565b509392505050565b6000611d2d611d2884612737565b6126e1565b905082815260208101848484011115611d4557600080fd5b611d508482856128da565b509392505050565b600081359050611d6781612fbc565b92915050565b600081359050611d7c81612fd3565b92915050565b600081359050611d9181612fea565b92915050565b600081519050611da681612fea565b92915050565b600082601f830112611dbd57600080fd5b8135611dcd848260208601611cdc565b91505092915050565b600082601f830112611de757600080fd5b8135611df7848260208601611d1a565b91505092915050565b600081359050611e0f81613001565b92915050565b600060208284031215611e2757600080fd5b6000611e3584828501611d58565b91505092915050565b60008060408385031215611e5157600080fd5b6000611e5f85828601611d58565b9250506020611e7085828601611d58565b9150509250929050565b600080600060608486031215611e8f57600080fd5b6000611e9d86828701611d58565b9350506020611eae86828701611d58565b9250506040611ebf86828701611e00565b9150509250925092565b60008060008060808587031215611edf57600080fd5b6000611eed87828801611d58565b9450506020611efe87828801611d58565b9350506040611f0f87828801611e00565b925050606085013567ffffffffffffffff811115611f2c57600080fd5b611f3887828801611dac565b91505092959194509250565b60008060408385031215611f5757600080fd5b6000611f6585828601611d58565b9250506020611f7685828601611d6d565b9150509250929050565b60008060408385031215611f9357600080fd5b6000611fa185828601611d58565b9250506020611fb285828601611e00565b9150509250929050565b600060208284031215611fce57600080fd5b6000611fdc84828501611d82565b91505092915050565b600060208284031215611ff757600080fd5b600061200584828501611d97565b91505092915050565b60006020828403121561202057600080fd5b600082013567ffffffffffffffff81111561203a57600080fd5b61204684828501611dd6565b91505092915050565b60006020828403121561206157600080fd5b600061206f84828501611e00565b91505092915050565b61208181612866565b82525050565b61209081612878565b82525050565b60006120a182612768565b6120ab818561277e565b93506120bb8185602086016128e9565b6120c481612ab5565b840191505092915050565b60006120da82612773565b6120e4818561278f565b93506120f48185602086016128e9565b6120fd81612ab5565b840191505092915050565b600061211382612773565b61211d81856127a0565b935061212d8185602086016128e9565b80840191505092915050565b600061214660328361278f565b915061215182612ac6565b604082019050919050565b600061216960268361278f565b915061217482612b15565b604082019050919050565b600061218c60258361278f565b915061219782612b64565b604082019050919050565b60006121af601c8361278f565b91506121ba82612bb3565b602082019050919050565b60006121d260248361278f565b91506121dd82612bdc565b604082019050919050565b60006121f560198361278f565b915061220082612c2b565b602082019050919050565b6000612218602c8361278f565b915061222382612c54565b604082019050919050565b600061223b60388361278f565b915061224682612ca3565b604082019050919050565b600061225e602a8361278f565b915061226982612cf2565b604082019050919050565b600061228160298361278f565b915061228c82612d41565b604082019050919050565b60006122a4602e8361278f565b91506122af82612d90565b604082019050919050565b60006122c760208361278f565b91506122d282612ddf565b602082019050919050565b60006122ea60318361278f565b91506122f582612e08565b604082019050919050565b600061230d602c8361278f565b915061231882612e57565b604082019050919050565b600061233060208361278f565b915061233b82612ea6565b602082019050919050565b6000612353602f8361278f565b915061235e82612ecf565b604082019050919050565b600061237660218361278f565b915061238182612f1e565b604082019050919050565b600061239960318361278f565b91506123a482612f6d565b604082019050919050565b6123b8816128d0565b82525050565b60006123ca8285612108565b91506123d68284612108565b91508190509392505050565b60006020820190506123f76000830184612078565b92915050565b60006080820190506124126000830187612078565b61241f6020830186612078565b61242c60408301856123af565b818103606083015261243e8184612096565b905095945050505050565b600060208201905061245e6000830184612087565b92915050565b6000602082019050818103600083015261247e81846120cf565b905092915050565b6000602082019050818103600083015261249f81612139565b9050919050565b600060208201905081810360008301526124bf8161215c565b9050919050565b600060208201905081810360008301526124df8161217f565b9050919050565b600060208201905081810360008301526124ff816121a2565b9050919050565b6000602082019050818103600083015261251f816121c5565b9050919050565b6000602082019050818103600083015261253f816121e8565b9050919050565b6000602082019050818103600083015261255f8161220b565b9050919050565b6000602082019050818103600083015261257f8161222e565b9050919050565b6000602082019050818103600083015261259f81612251565b9050919050565b600060208201905081810360008301526125bf81612274565b9050919050565b600060208201905081810360008301526125df81612297565b9050919050565b600060208201905081810360008301526125ff816122ba565b9050919050565b6000602082019050818103600083015261261f816122dd565b9050919050565b6000602082019050818103600083015261263f81612300565b9050919050565b6000602082019050818103600083015261265f81612323565b9050919050565b6000602082019050818103600083015261267f81612346565b9050919050565b6000602082019050818103600083015261269f81612369565b9050919050565b600060208201905081810360008301526126bf8161238c565b9050919050565b60006020820190506126db60008301846123af565b92915050565b60006126eb6126fc565b90506126f7828261294e565b919050565b6000604051905090565b600067ffffffffffffffff82111561272157612720612a86565b5b61272a82612ab5565b9050602081019050919050565b600067ffffffffffffffff82111561275257612751612a86565b5b61275b82612ab5565b9050602081019050919050565b600081519050919050565b600081519050919050565b600082825260208201905092915050565b600082825260208201905092915050565b600081905092915050565b60006127b6826128d0565b91506127c1836128d0565b9250827fffffffffffffffffffffffffffffffffffffffffffffffffffffffffffffffff038211156127f6576127f56129f9565b5b828201905092915050565b600061280c826128d0565b9150612817836128d0565b92508261282757612826612a28565b5b828204905092915050565b600061283d826128d0565b9150612848836128d0565b92508282101561285b5761285a6129f9565b5b828203905092915050565b6000612871826128b0565b9050919050565b60008115159050919050565b60007fffffffff0000000000000000000000000000000000000000000000000000000082169050919050565b600073ffffffffffffffffffffffffffffffffffffffff82169050919050565b6000819050919050565b82818337600083830152505050565b60005b838110156129075780820151818401526020810190506128ec565b83811115612916576000848401525b50505050565b6000600282049050600182168061293457607f821691505b6020821081141561294857612947612a57565b5b50919050565b61295782612ab5565b810181811067ffffffffffffffff8211171561297657612975612a86565b5b80604052505050565b600061298a826128d0565b91507fffffffffffffffffffffffffffffffffffffffffffffffffffffffffffffffff8214156129bd576129bc6129f9565b5b600182019050919050565b60006129d3826128d0565b91506129de836128d0565b9250826129ee576129ed612a28565b5b828206905092915050565b7f4e487b7100000000000000000000000000000000000000000000000000000000600052601160045260246000fd5b7f4e487b7100000000000000000000000000000000000000000000000000000000600052601260045260246000fd5b7f4e487b7100000000000000000000000000000000000000000000000000000000600052602260045260246000fd5b7f4e487b7100000000000000000000000000000000000000000000000000000000600052604160045260246000fd5b6000601f19601f8301169050919050565b7f4552433732313a207472616e7366657220746f206e6f6e20455243373231526560008201527f63656976657220696d706c656d656e7465720000000000000000000000000000602082015250565b7f4f776e61626c653a206e6577206f776e657220697320746865207a65726f206160008201527f6464726573730000000000000000000000000000000000000000000000000000602082015250565b7f4552433732313a207472616e736665722066726f6d20696e636f72726563742060008201527f6f776e6572000000000000000000000000000000000000000000000000000000602082015250565b7f4552433732313a20746f6b656e20616c7265616479206d696e74656400000000600082015250565b7f4552433732313a207472616e7366657220746f20746865207a65726f2061646460008201527f7265737300000000000000000000000000000000000000000000000000000000602082015250565b7f4552433732313a20617070726f766520746f2063616c6c657200000000000000600082015250565b7f4552433732313a206f70657261746f7220717565727920666f72206e6f6e657860008201527f697374656e7420746f6b656e0000000000000000000000000000000000000000602082015250565b7f4552433732313a20617070726f76652063616c6c6572206973206e6f74206f7760008201527f6e6572206e6f7220617070726f76656420666f7220616c6c0000000000000000602082015250565b7f4552433732313a2062616c616e636520717565727920666f7220746865207a6560008201527f726f206164647265737300000000000000000000000000000000000000000000602082015250565b7f4552433732313a206f776e657220717565727920666f72206e6f6e657869737460008201527f656e7420746f6b656e0000000000000000000000000000000000000000000000602082015250565b7f45524337323155524953746f726167653a2055524920736574206f66206e6f6e60008201527f6578697374656e7420746f6b656e000000000000000000000000000000000000602082015250565b7f4552433732313a206d696e7420746f20746865207a65726f2061646472657373600082015250565b7f45524337323155524953746f726167653a2055524920717565727920666f722060008201527f6e6f6e6578697374656e7420746f6b656e000000000000000000000000000000602082015250565b7f4552433732313a20617070726f76656420717565727920666f72206e6f6e657860008201527f697374656e7420746f6b656e0000000000000000000000000000000000000000602082015250565b7f4f776e61626c653a2063616c6c6572206973206e6f7420746865206f776e6572600082015250565b7f4552433732314d657461646174613a2055524920717565727920666f72206e6f60008201527f6e6578697374656e7420746f6b656e0000000000000000000000000000000000602082015250565b7f4552433732313a20617070726f76616c20746f2063757272656e74206f776e6560008201527f7200000000000000000000000000000000000000000000000000000000000000602082015250565b7f4552433732313a207472616e736665722063616c6c6572206973206e6f74206f60008201527f776e6572206e6f7220617070726f766564000000000000000000000000000000602082015250565b612fc581612866565b8114612fd057600080fd5b50565b612fdc81612878565b8114612fe757600080fd5b50565b612ff381612884565b8114612ffe57600080fd5b50565b61300a816128d0565b811461301557600080fd5b5056fea2646970667358221220581ee486cfc89044be7337db0f93c8e78646008d7526c302a932f6b9b1ac069e64736f6c63430008040033",
  "linkReferences": {},
  "deployedLinkReferences": {}
}